:020000000828CE
:0200080084284A
:10001000831603178030810000308600013088008D
:1000200089018312890188018701831603139601D0
:100030009D019F019F1700309500013085008312BC
:1000400087019401900197019D018501860141304E
:100050009F00A40183160317870103131930990029
:100060009A01403087002E3098008312903098001B
:100070008C0191019201831602308C00FF309200B6
:10008000C0308B008312263092001F149F148619F3
:1000900051200619932886186928452899000311CC
:1000A0000800031383129F185328031383121E089A
:1000B00003138312990003138316981C5D280313FE
:1000C00083161E080313831299008611A4112411AC
:1000D0000800241945281A08A300861045281A0884
:1000E000A3001A08A6002308243A03198614241131
:1000F000243A4E202608263A03198615031924159A
:100100000319A41503110800A0000308A1008C1A0C
:100110006F208C1824198E288C1806158C01210844
:1001200083002008090024194528230897288207FE
:10013000AE28B228B628BA28BE28C228C628CA289F
:10014000CE28D228D628DA28DE28E228E628EA288F
:10015000EE28F228F628FA28FE2802293230A200DA
:10016000061406293C30A200061406294630A200D7
:10017000061406295030A200061406295A30A2009F
:10018000061406296430A200061406296E30A20067
:10019000061406297830A200061406298230A2002F
:1001A000061406298C30A200061406299630A200F7
:1001B00006140629A030A20006140629AA30A200BF
:1001C00006140629B430A20006140629BE30A20087
:1001D00006140629C830A20006140629D230A2004F
:1001E00006140629DC30A20006140629E630A20017
:1001F00006140629F030A20006140629F830A200E1
:1002000006140629FE30A20006140629000000008C
:1002100000000000000000000000A20B06290610EC
:040220000611452856
:04400E00F120FF3F5F
:00000001FF
