:020000000828CE
:020008004B2883
:100010008316031700308600880189018312890145
:10002000880187018316031396019D019F018312A6
:1000300087019401900197019D0185018601831636
:100040000317870103130C3099009A014030870091
:10005000203098008312981718168C019101920194
:10006000831620308C000C12FF309200C0308B00C1
:1000700083122530920000000000000000003B28A1
:100080002408990003138316981C442808001A08B2
:10009000A40040200800A0000308A100031383125D
:1000A0008C1A472003138312FF30060686000313C1
:0C00B00083128C10210883002008090036
:04400E00F220FF3F5E
:00000001FF
