:020000000828CE
:0200080061286D
:100010008316031700308600880189018312890145
:10002000880187018316031396019D019F018312A6
:1000300087019401900197019D0185018601A50129
:1000400083160317870103130C3099009A0140307F
:100050008700203098008312981718168C019101A0
:100060009201831620308C000C12FF309200C030B9
:100070008B00831225309200000000000000000079
:100080003C28240803138312990003138316981C39
:10009000472808001A08A400251857202408243AE5
:1000A00003195428251008002514412008002408AD
:1000B00041202510080000000000031383128C105B
:1000C0000800A0000308A100031383128C1A4A2021
:0C00D0008C185B20210883002008090028
:04400E00F220FF3F5E
:00000001FF
